{
  "_format": "hh-sol-artifact-1",
  "contractName": "WillModule",
  "sourceName": "contracts/WillModule.sol",
  "abi": [
    {
      "inputs": [
        {
          "internalType": "bytes32",
          "name": "beneficiary",
          "type": "bytes32"
        }
      ],
      "name": "BeneficiaryExists",
      "type": "error"
    },
    {
      "inputs": [
        {
          "internalType": "bytes32",
          "name": "beneficiary",
          "type": "bytes32"
        }
      ],
      "name": "BeneficiaryNotFound",
      "type": "error"
    },
    {
      "inputs": [],
      "name": "NoValueSent",
      "type": "error"
    },
    {
      "inputs": [],
      "name": "NothingToClaim",
      "type": "error"
    },
    {
      "inputs": [],
      "name": "TimeoutMustBeMoreThan0",
      "type": "error"
    },
    {
      "inputs": [
        {
          "internalType": "uint256",
          "name": "unlockTime",
          "type": "uint256"
        }
      ],
      "name": "TimeoutNotExpired",
      "type": "error"
    },
    {
      "inputs": [],
      "name": "UnviableAmount",
      "type": "error"
    },
    {
      "inputs": [],
      "name": "WillAlreadyExists",
      "type": "error"
    },
    {
      "inputs": [
        {
          "internalType": "address",
          "name": "owner",
          "type": "address"
        }
      ],
      "name": "WillNotFound",
      "type": "error"
    },
    {
      "anonymous": false,
      "inputs": [
        {
          "indexed": true,
          "internalType": "address",
          "name": "owner",
          "type": "address"
        },
        {
          "indexed": true,
          "internalType": "bytes32",
          "name": "beneficiary",
          "type": "bytes32"
        },
        {
          "indexed": false,
          "internalType": "uint256",
          "name": "amount",
          "type": "uint256"
        }
      ],
      "name": "BeneficiaryAdded",
      "type": "event"
    },
    {
      "anonymous": false,
      "inputs": [
        {
          "indexed": true,
          "internalType": "address",
          "name": "owner",
          "type": "address"
        },
        {
          "indexed": true,
          "internalType": "bytes32",
          "name": "beneficiary",
          "type": "bytes32"
        }
      ],
      "name": "BeneficiaryRemoved",
      "type": "event"
    },
    {
      "anonymous": false,
      "inputs": [
        {
          "indexed": true,
          "internalType": "address",
          "name": "owner",
          "type": "address"
        },
        {
          "indexed": true,
          "internalType": "bytes32",
          "name": "beneficiary",
          "type": "bytes32"
        },
        {
          "indexed": false,
          "internalType": "uint256",
          "name": "newAmount",
          "type": "uint256"
        }
      ],
      "name": "BeneficiaryUpdated",
      "type": "event"
    },
    {
      "anonymous": false,
      "inputs": [
        {
          "indexed": true,
          "internalType": "address",
          "name": "owner",
          "type": "address"
        },
        {
          "indexed": true,
          "internalType": "bytes32",
          "name": "beneficiary",
          "type": "bytes32"
        },
        {
          "indexed": false,
          "internalType": "address",
          "name": "newSafe",
          "type": "address"
        },
        {
          "indexed": false,
          "internalType": "uint256",
          "name": "amount",
          "type": "uint256"
        }
      ],
      "name": "InheritanceClaimed",
      "type": "event"
    },
    {
      "anonymous": false,
      "inputs": [
        {
          "indexed": true,
          "internalType": "address",
          "name": "owner",
          "type": "address"
        }
      ],
      "name": "Ping",
      "type": "event"
    },
    {
      "anonymous": false,
      "inputs": [
        {
          "indexed": true,
          "internalType": "address",
          "name": "owner",
          "type": "address"
        },
        {
          "indexed": false,
          "internalType": "uint256",
          "name": "timeout",
          "type": "uint256"
        }
      ],
      "name": "WillCreated",
      "type": "event"
    },
    {
      "inputs": [
        {
          "internalType": "bytes32",
          "name": "_beneficiary",
          "type": "bytes32"
        },
        {
          "internalType": "uint256",
          "name": "_amount",
          "type": "uint256"
        }
      ],
      "name": "addBeneficiary",
      "outputs": [],
      "stateMutability": "nonpayable",
      "type": "function"
    },
    {
      "inputs": [
        {
          "internalType": "address",
          "name": "_ownerSafeAddress",
          "type": "address"
        },
        {
          "internalType": "string",
          "name": "_beneficiarySecret",
          "type": "string"
        },
        {
          "internalType": "address",
          "name": "_newSafeOwner",
          "type": "address"
        }
      ],
      "name": "claimInheritance",
      "outputs": [],
      "stateMutability": "nonpayable",
      "type": "function"
    },
    {
      "inputs": [
        {
          "internalType": "uint256",
          "name": "_timeoutInDays",
          "type": "uint256"
        }
      ],
      "name": "createWill",
      "outputs": [],
      "stateMutability": "nonpayable",
      "type": "function"
    },
    {
      "inputs": [],
      "name": "ping",
      "outputs": [],
      "stateMutability": "nonpayable",
      "type": "function"
    },
    {
      "inputs": [
        {
          "internalType": "bytes32",
          "name": "_beneficiary",
          "type": "bytes32"
        }
      ],
      "name": "removeBeneficiary",
      "outputs": [],
      "stateMutability": "nonpayable",
      "type": "function"
    },
    {
      "inputs": [
        {
          "internalType": "bytes32",
          "name": "_beneficiary",
          "type": "bytes32"
        },
        {
          "internalType": "uint256",
          "name": "_newAmount",
          "type": "uint256"
        }
      ],
      "name": "updateBeneficiary",
      "outputs": [],
      "stateMutability": "nonpayable",
      "type": "function"
    }
  ],
  "bytecode": "0x6080604052348015600f57600080fd5b506117cc8061001f6000396000f3fe608060405234801561001057600080fd5b50600436106100625760003560e01c80635c36b18614610067578063a17e094c14610071578063b7d3ff371461008d578063bb66660b146100a9578063cb35174a146100c5578063e2c5db56146100e1575b600080fd5b61006f6100fd565b005b61008b60048036038101906100869190610f3c565b610214565b005b6100a760048036038101906100a29190610f3c565b6103dc565b005b6100c360048036038101906100be9190610f7c565b610578565b005b6100df60048036038101906100da919061106c565b61079b565b005b6100fb60048036038101906100f691906110e0565b610d11565b005b600033905060008060008373ffffffffffffffffffffffffffffffffffffffff1673ffffffffffffffffffffffffffffffffffffffff168152602001908152602001600020600101540361018857806040517f91e9b36700000000000000000000000000000000000000000000000000000000815260040161017f919061111c565b60405180910390fd5b426000808373ffffffffffffffffffffffffffffffffffffffff1673ffffffffffffffffffffffffffffffffffffffff168152602001908152602001600020600001819055508073ffffffffffffffffffffffffffffffffffffffff167ffee8775ba9b0f00b87db291c081d99de518bdebb6ccfa2482cc5882fe69307e560405160405180910390a250565b600033905060008060008373ffffffffffffffffffffffffffffffffffffffff1673ffffffffffffffffffffffffffffffffffffffff168152602001908152602001600020905060008160010154036102a457816040517f91e9b36700000000000000000000000000000000000000000000000000000000815260040161029b919061111c565b60405180910390fd5b600083036102de576040517f7cc3da0700000000000000000000000000000000000000000000000000000000815260040160405180910390fd5b600081600201600086815260200190815260200160002054111561033957836040517f3c6974af0000000000000000000000000000000000000000000000000000000081526004016103309190611146565b60405180910390fd5b828160020160008681526020019081526020016000208190555080600301849080600181540180825580915050600190039060005260206000200160009091909190915055428160000181905550838273ffffffffffffffffffffffffffffffffffffffff167f1d86a90a29091360106087e7f42fe03cbd690a198e9e7aa2df2f33c0b7385a52856040516103ce9190611170565b60405180910390a350505050565b600033905060008060008373ffffffffffffffffffffffffffffffffffffffff1673ffffffffffffffffffffffffffffffffffffffff1681526020019081526020016000209050600081600101540361046c57816040517f91e9b367000000000000000000000000000000000000000000000000000000008152600401610463919061111c565b60405180910390fd5b600081600201600086815260200190815260200160002054036104c657836040517f0f8e52710000000000000000000000000000000000000000000000000000000081526004016104bd9190611146565b60405180910390fd5b60008303610500576040517f7cc3da0700000000000000000000000000000000000000000000000000000000815260040160405180910390fd5b8281600201600086815260200190815260200160002081905550428160000181905550838273ffffffffffffffffffffffffffffffffffffffff167f753eba349a8c74370e6335c9ded25404d1c6b742928f35d2eb17a92b8ded105c8560405161056a9190611170565b60405180910390a350505050565b600033905060008060008373ffffffffffffffffffffffffffffffffffffffff1673ffffffffffffffffffffffffffffffffffffffff1681526020019081526020016000209050600081600101540361060857816040517f91e9b3670000000000000000000000000000000000000000000000000000000081526004016105ff919061111c565b60405180910390fd5b6000816002016000858152602001908152602001600020540361066257826040517f0f8e52710000000000000000000000000000000000000000000000000000000081526004016106599190611146565b60405180910390fd5b8060020160008481526020019081526020016000206000905560005b816003018054905081101561074857838260030182815481106106a4576106a361118b565b5b90600052602060002001540361073b5781600301600183600301805490506106cc91906111e9565b815481106106dd576106dc61118b565b5b90600052602060002001548260030182815481106106fe576106fd61118b565b5b9060005260206000200181905550816003018054806107205761071f61121d565b5b60019003818190600052602060002001600090559055610748565b808060010191505061067e565b50428160000181905550828273ffffffffffffffffffffffffffffffffffffffff167f4ad3156f64b29b4b9d965a5b985e869a3047da0ed08060b7f697db2900260e6e60405160405180910390a3505050565b60008060008673ffffffffffffffffffffffffffffffffffffffff1673ffffffffffffffffffffffffffffffffffffffff1681526020019081526020016000209050600081600101540361082657846040517f91e9b36700000000000000000000000000000000000000000000000000000000815260040161081d919061111c565b60405180910390fd5b8060010154816000015461083a919061124c565b4210156108915780600101548160000154610855919061124c565b6040517f8dcafa5d0000000000000000000000000000000000000000000000000000000081526004016108889190611170565b60405180910390fd5b600084846040516020016108a69291906112bf565b604051602081830303815290604052805190602001209050600082600201600083815260200190815260200160002054905060008103610912576040517f969bf72800000000000000000000000000000000000000000000000000000000815260040160405180910390fd5b60007329fcb43b46531bca003ddc8fcb67ffe91900c76290506000734e1dcf7ad4e460cfd30791ccc4f9c8a4f820ec6790506000600167ffffffffffffffff811115610961576109606112d8565b5b60405190808252806020026020018201604052801561098f5781602001602082028036833780820191505090505b50905086816000815181106109a7576109a661118b565b5b602002602001019073ffffffffffffffffffffffffffffffffffffffff16908173ffffffffffffffffffffffffffffffffffffffff168152505060008760016000806000806000604051602401610a0497969594939291906113cb565b6040516020818303038152906040527fb63e800d000000000000000000000000000000000000000000000000000000007bffffffffffffffffffffffffffffffffffffffffffffffffffffffff19166020820180517bffffffffffffffffffffffffffffffffffffffffffffffffffffffff8381831617835250505050905060008373ffffffffffffffffffffffffffffffffffffffff166361b69abd86846040518363ffffffff1660e01b8152600401610ac09291906114de565b6020604051808303816000875af1158015610adf573d6000803e3d6000fd5b505050506040513d601f19601f82011682018060405250810190610b039190611523565b905060008c73ffffffffffffffffffffffffffffffffffffffff1663468721a7838960006040518463ffffffff1660e01b8152600401610b45939291906115ea565b6020604051808303816000875af1158015610b64573d6000803e3d6000fd5b505050506040513d601f19601f82011682018060405250810190610b88919061166c565b905080610bca576040517f08c379a0000000000000000000000000000000000000000000000000000000008152600401610bc19061170b565b60405180910390fd5b8860020160008981526020019081526020016000206000905560005b8960030180549050811015610cb057888a6003018281548110610c0c57610c0b61118b565b5b906000526020600020015403610ca3578960030160018b60030180549050610c3491906111e9565b81548110610c4557610c4461118b565b5b90600052602060002001548a6003018281548110610c6657610c6561118b565b5b906000526020600020018190555089600301805480610c8857610c8761121d565b5b60019003818190600052602060002001600090559055610cb0565b8080600101915050610be6565b50878d73ffffffffffffffffffffffffffffffffffffffff167f6156eff72c525e98e661bf25957e81442726c50572181f2e8599b52f4cc0fad9848a604051610cfa92919061172b565b60405180910390a350505050505050505050505050565b600033905060008060003373ffffffffffffffffffffffffffffffffffffffff1673ffffffffffffffffffffffffffffffffffffffff168152602001908152602001600020600001541115610d92576040517f781e96e800000000000000000000000000000000000000000000000000000000815260040160405180910390fd5b60008211610dcc576040517f2c84027700000000000000000000000000000000000000000000000000000000815260040160405180910390fd5b426000808373ffffffffffffffffffffffffffffffffffffffff1673ffffffffffffffffffffffffffffffffffffffff168152602001908152602001600020600001819055506201518082610e219190611754565b6000808373ffffffffffffffffffffffffffffffffffffffff1673ffffffffffffffffffffffffffffffffffffffff168152602001908152602001600020600101819055508073ffffffffffffffffffffffffffffffffffffffff167fd40dc4a639c90600691397f655099adba04d6b763ef2122630edd47c09f1b6f96201518084610ead9190611754565b604051610eba9190611170565b60405180910390a25050565b600080fd5b600080fd5b6000819050919050565b610ee381610ed0565b8114610eee57600080fd5b50565b600081359050610f0081610eda565b92915050565b6000819050919050565b610f1981610f06565b8114610f2457600080fd5b50565b600081359050610f3681610f10565b92915050565b60008060408385031215610f5357610f52610ec6565b5b6000610f6185828601610ef1565b9250506020610f7285828601610f27565b9150509250929050565b600060208284031215610f9257610f91610ec6565b5b6000610fa084828501610ef1565b91505092915050565b600073ffffffffffffffffffffffffffffffffffffffff82169050919050565b6000610fd482610fa9565b9050919050565b610fe481610fc9565b8114610fef57600080fd5b50565b60008135905061100181610fdb565b92915050565b600080fd5b600080fd5b600080fd5b60008083601f84011261102c5761102b611007565b5b8235905067ffffffffffffffff8111156110495761104861100c565b5b60208301915083600182028301111561106557611064611011565b5b9250929050565b6000806000806060858703121561108657611085610ec6565b5b600061109487828801610ff2565b945050602085013567ffffffffffffffff8111156110b5576110b4610ecb565b5b6110c187828801611016565b935093505060406110d487828801610ff2565b91505092959194509250565b6000602082840312156110f6576110f5610ec6565b5b600061110484828501610f27565b91505092915050565b61111681610fc9565b82525050565b6000602082019050611131600083018461110d565b92915050565b61114081610ed0565b82525050565b600060208201905061115b6000830184611137565b92915050565b61116a81610f06565b82525050565b60006020820190506111856000830184611161565b92915050565b7f4e487b7100000000000000000000000000000000000000000000000000000000600052603260045260246000fd5b7f4e487b7100000000000000000000000000000000000000000000000000000000600052601160045260246000fd5b60006111f482610f06565b91506111ff83610f06565b9250828203905081811115611217576112166111ba565b5b92915050565b7f4e487b7100000000000000000000000000000000000000000000000000000000600052603160045260246000fd5b600061125782610f06565b915061126283610f06565b925082820190508082111561127a576112796111ba565b5b92915050565b600081905092915050565b82818337600083830152505050565b60006112a68385611280565b93506112b383858461128b565b82840190509392505050565b60006112cc82848661129a565b91508190509392505050565b7f4e487b7100000000000000000000000000000000000000000000000000000000600052604160045260246000fd5b6000819050919050565b600060ff82169050919050565b6000819050919050565b600061134361133e61133984611307565b61131e565b611311565b9050919050565b61135381611328565b82525050565b600082825260208201905092915050565b50565b600061137a600083611359565b91506113858261136a565b600082019050919050565b6000819050919050565b60006113b56113b06113ab84611390565b61131e565b611311565b9050919050565b6113c58161139a565b82525050565b6000610100820190506113e1600083018a61110d565b6113ee602083018961134a565b6113fb604083018861110d565b818103606083015261140c8161136d565b905061141b608083018761110d565b61142860a083018661110d565b61143560c08301856113bc565b61144260e083018461110d565b98975050505050505050565b600081519050919050565b600082825260208201905092915050565b60005b8381101561148857808201518184015260208101905061146d565b60008484015250505050565b6000601f19601f8301169050919050565b60006114b08261144e565b6114ba8185611459565b93506114ca81856020860161146a565b6114d381611494565b840191505092915050565b60006040820190506114f3600083018561110d565b818103602083015261150581846114a5565b90509392505050565b60008151905061151d81610fdb565b92915050565b60006020828403121561153957611538610ec6565b5b60006115478482850161150e565b91505092915050565b600061155d600083611459565b91506115688261136a565b600082019050919050565b7f4e487b7100000000000000000000000000000000000000000000000000000000600052602160045260246000fd5b600281106115b3576115b2611573565b5b50565b60008190506115c4826115a2565b919050565b60006115d4826115b6565b9050919050565b6115e4816115c9565b82525050565b60006080820190506115ff600083018661110d565b61160c6020830185611161565b818103604083015261161d81611550565b905061162c60608301846115db565b949350505050565b60008115159050919050565b61164981611634565b811461165457600080fd5b50565b60008151905061166681611640565b92915050565b60006020828403121561168257611681610ec6565b5b600061169084828501611657565b91505092915050565b7f57696c6c4d6f64756c653a205061796f75742066726f6d206f776e657227732060008201527f53616665206661696c6564000000000000000000000000000000000000000000602082015250565b60006116f5602b83611359565b915061170082611699565b604082019050919050565b60006020820190508181036000830152611724816116e8565b9050919050565b6000604082019050611740600083018561110d565b61174d6020830184611161565b9392505050565b600061175f82610f06565b915061176a83610f06565b925082820261177881610f06565b9150828204841483151761178f5761178e6111ba565b5b509291505056fea264697066735822122004d74ef25efea0cebb62d575ee66a612383dd546585cad654a9dbf5a7c52b8b764736f6c634300081a0033",
  "linkReferences": {},
  "deployedLinkReferences": {}
}