{"project/contracts/WillModule.sol":{"WillModule":{"abi":[{"inputs":[{"internalType":"bytes32","name":"beneficiary","type":"bytes32"}],"name":"BeneficiaryExists","type":"error"},{"inputs":[{"internalType":"bytes32","name":"beneficiary","type":"bytes32"}],"name":"BeneficiaryNotFound","type":"error"},{"inputs":[],"name":"NoValueSent","type":"error"},{"inputs":[],"name":"NothingToClaim","type":"error"},{"inputs":[],"name":"TimeoutMustBeMoreThan0","type":"error"},{"inputs":[{"internalType":"uint256","name":"unlockTime","type":"uint256"}],"name":"TimeoutNotExpired","type":"error"},{"inputs":[],"name":"UnviableAmount","type":"error"},{"inputs":[],"name":"WillAlreadyExists","type":"error"},{"inputs":[{"internalType":"address","name":"owner","type":"address"}],"name":"WillNotFound","type":"error"},{"anonymous":false,"inputs":[{"indexed":true,"internalType":"address","name":"owner","type":"address"},{"indexed":true,"internalType":"bytes32","name":"beneficiary","type":"bytes32"},{"indexed":false,"internalType":"uint256","name":"amount","type":"uint256"}],"name":"BeneficiaryAdded","type":"event"},{"anonymous":false,"inputs":[{"indexed":true,"internalType":"address","name":"owner","type":"address"},{"indexed":true,"internalType":"bytes32","name":"beneficiary","type":"bytes32"}],"name":"BeneficiaryRemoved","type":"event"},{"anonymous":false,"inputs":[{"indexed":true,"internalType":"address","name":"owner","type":"address"},{"indexed":true,"internalType":"bytes32","name":"beneficiary","type":"bytes32"},{"indexed":false,"internalType":"uint256","name":"newAmount","type":"uint256"}],"name":"BeneficiaryUpdated","type":"event"},{"anonymous":false,"inputs":[{"indexed":true,"internalType":"address","name":"owner","type":"address"},{"indexed":true,"internalType":"bytes32","name":"beneficiary","type":"bytes32"},{"indexed":false,"internalType":"address","name":"newSafe","type":"address"},{"indexed":false,"internalType":"uint256","name":"amount","type":"uint256"}],"name":"InheritanceClaimed","type":"event"},{"anonymous":false,"inputs":[{"indexed":true,"internalType":"address","name":"owner","type":"address"}],"name":"Ping","type":"event"},{"anonymous":false,"inputs":[{"indexed":true,"internalType":"address","name":"owner","type":"address"},{"indexed":false,"internalType":"uint256","name":"timeout","type":"uint256"}],"name":"WillCreated","type":"event"},{"inputs":[{"internalType":"bytes32","name":"_beneficiary","type":"bytes32"},{"internalType":"uint256","name":"_amount","type":"uint256"}],"name":"addBeneficiary","outputs":[],"stateMutability":"nonpayable","type":"function"},{"inputs":[{"internalType":"address","name":"_ownerSafeAddress","type":"address"},{"internalType":"string","name":"_beneficiarySecret","type":"string"},{"internalType":"address","name":"_newBeneficiarySafe","type":"address"}],"name":"claimInheritance","outputs":[],"stateMutability":"nonpayable","type":"function"},{"inputs":[{"internalType":"uint256","name":"_timeoutInDays","type":"uint256"}],"name":"createWill","outputs":[],"stateMutability":"nonpayable","type":"function"},{"inputs":[],"name":"ping","outputs":[],"stateMutability":"nonpayable","type":"function"},{"inputs":[{"internalType":"bytes32","name":"_beneficiary","type":"bytes32"}],"name":"removeBeneficiary","outputs":[],"stateMutability":"nonpayable","type":"function"},{"inputs":[{"internalType":"bytes32","name":"_beneficiary","type":"bytes32"},{"internalType":"uint256","name":"_newAmount","type":"uint256"}],"name":"updateBeneficiary","outputs":[],"stateMutability":"nonpayable","type":"function"}],"evm":{"bytecode":{"linkReferences":{},"object":"6080604052348015600e575f80fd5b5061132b8061001c5f395ff3fe608060405234801561000f575f80fd5b5060043610610060575f3560e01c80635c36b18614610064578063a17e094c1461006e578063b7d3ff371461008a578063bb66660b146100a6578063cb35174a146100c2578063e2c5db56146100de575b5f80fd5b61006c6100fa565b005b61008860048036038101906100839190610ce9565b61020a565b005b6100a4600480360381019061009f9190610ce9565b6103c3565b005b6100c060048036038101906100bb9190610d27565b610553565b005b6100dc60048036038101906100d79190610e0d565b610760565b005b6100f860048036038101906100f39190610e7e565b610ad1565b005b5f3390505f805f8373ffffffffffffffffffffffffffffffffffffffff1673ffffffffffffffffffffffffffffffffffffffff1681526020019081526020015f20600101540361018157806040517f91e9b3670000000000000000000000000000000000000000000000000000000081526004016101789190610eb8565b60405180910390fd5b425f808373ffffffffffffffffffffffffffffffffffffffff1673ffffffffffffffffffffffffffffffffffffffff1681526020019081526020015f205f01819055508073ffffffffffffffffffffffffffffffffffffffff167ffee8775ba9b0f00b87db291c081d99de518bdebb6ccfa2482cc5882fe69307e560405160405180910390a250565b5f3390505f805f8373ffffffffffffffffffffffffffffffffffffffff1673ffffffffffffffffffffffffffffffffffffffff1681526020019081526020015f2090505f81600101540361029557816040517f91e9b36700000000000000000000000000000000000000000000000000000000815260040161028c9190610eb8565b60405180910390fd5b5f83036102ce576040517f7cc3da0700000000000000000000000000000000000000000000000000000000815260040160405180910390fd5b5f816002015f8681526020019081526020015f2054111561032657836040517f3c6974af00000000000000000000000000000000000000000000000000000000815260040161031d9190610ee0565b60405180910390fd5b82816002015f8681526020019081526020015f20819055508060030184908060018154018082558091505060019003905f5260205f20015f909190919091505542815f0181905550838273ffffffffffffffffffffffffffffffffffffffff167f1d86a90a29091360106087e7f42fe03cbd690a198e9e7aa2df2f33c0b7385a52856040516103b59190610f08565b60405180910390a350505050565b5f3390505f805f8373ffffffffffffffffffffffffffffffffffffffff1673ffffffffffffffffffffffffffffffffffffffff1681526020019081526020015f2090505f81600101540361044e57816040517f91e9b3670000000000000000000000000000000000000000000000000000000081526004016104459190610eb8565b60405180910390fd5b5f816002015f8681526020019081526020015f2054036104a557836040517f0f8e527100000000000000000000000000000000000000000000000000000000815260040161049c9190610ee0565b60405180910390fd5b5f83036104de576040517f7cc3da0700000000000000000000000000000000000000000000000000000000815260040160405180910390fd5b82816002015f8681526020019081526020015f208190555042815f0181905550838273ffffffffffffffffffffffffffffffffffffffff167f753eba349a8c74370e6335c9ded25404d1c6b742928f35d2eb17a92b8ded105c856040516105459190610f08565b60405180910390a350505050565b5f3390505f805f8373ffffffffffffffffffffffffffffffffffffffff1673ffffffffffffffffffffffffffffffffffffffff1681526020019081526020015f2090505f8160010154036105de57816040517f91e9b3670000000000000000000000000000000000000000000000000000000081526004016105d59190610eb8565b60405180910390fd5b5f816002015f8581526020019081526020015f20540361063557826040517f0f8e527100000000000000000000000000000000000000000000000000000000815260040161062c9190610ee0565b60405180910390fd5b806002015f8481526020019081526020015f205f90555f5b816003018054905081101561070e578382600301828154811061067357610672610f21565b5b905f5260205f200154036107015781600301600183600301805490506106999190610f7b565b815481106106aa576106a9610f21565b5b905f5260205f2001548260030182815481106106c9576106c8610f21565b5b905f5260205f200181905550816003018054806106e9576106e8610fae565b5b600190038181905f5260205f20015f9055905561070e565b808060010191505061064d565b5042815f0181905550828273ffffffffffffffffffffffffffffffffffffffff167f4ad3156f64b29b4b9d965a5b985e869a3047da0ed08060b7f697db2900260e6e60405160405180910390a3505050565b5f805f8673ffffffffffffffffffffffffffffffffffffffff1673ffffffffffffffffffffffffffffffffffffffff1681526020019081526020015f2090505f8160010154036107e757846040517f91e9b3670000000000000000000000000000000000000000000000000000000081526004016107de9190610eb8565b60405180910390fd5b8060010154815f01546107fa9190610fdb565b421015610850578060010154815f01546108149190610fdb565b6040517f8dcafa5d0000000000000000000000000000000000000000000000000000000081526004016108479190610f08565b60405180910390fd5b5f848460405160200161086492919061104a565b6040516020818303038152906040528051906020012090505f826002015f8381526020019081526020015f205490505f81036108cc576040517f969bf72800000000000000000000000000000000000000000000000000000000815260040160405180910390fd5b5f8773ffffffffffffffffffffffffffffffffffffffff1663468721a7868460405180602001604052805f8152505f6040518563ffffffff1660e01b815260040161091a9493929190611145565b6020604051808303815f875af1158015610936573d5f803e3d5ffd5b505050506040513d601f19601f8201168201806040525081019061095a91906111c4565b90508061099c576040517f08c379a00000000000000000000000000000000000000000000000000000000081526004016109939061126f565b60405180910390fd5b836002015f8481526020019081526020015f205f90555f5b8460030180549050811015610a7557838560030182815481106109da576109d9610f21565b5b905f5260205f20015403610a68578460030160018660030180549050610a009190610f7b565b81548110610a1157610a10610f21565b5b905f5260205f200154856003018281548110610a3057610a2f610f21565b5b905f5260205f20018190555084600301805480610a5057610a4f610fae565b5b600190038181905f5260205f20015f90559055610a75565b80806001019150506109b4565b50828873ffffffffffffffffffffffffffffffffffffffff167f6156eff72c525e98e661bf25957e81442726c50572181f2e8599b52f4cc0fad98785604051610abf92919061128d565b60405180910390a35050505050505050565b5f3390505f805f3373ffffffffffffffffffffffffffffffffffffffff1673ffffffffffffffffffffffffffffffffffffffff1681526020019081526020015f205f01541115610b4d576040517f781e96e800000000000000000000000000000000000000000000000000000000815260040160405180910390fd5b5f8211610b86576040517f2c84027700000000000000000000000000000000000000000000000000000000815260040160405180910390fd5b425f808373ffffffffffffffffffffffffffffffffffffffff1673ffffffffffffffffffffffffffffffffffffffff1681526020019081526020015f205f01819055506201518082610bd891906112b4565b5f808373ffffffffffffffffffffffffffffffffffffffff1673ffffffffffffffffffffffffffffffffffffffff1681526020019081526020015f20600101819055508073ffffffffffffffffffffffffffffffffffffffff167fd40dc4a639c90600691397f655099adba04d6b763ef2122630edd47c09f1b6f96201518084610c6291906112b4565b604051610c6f9190610f08565b60405180910390a25050565b5f80fd5b5f80fd5b5f819050919050565b610c9581610c83565b8114610c9f575f80fd5b50565b5f81359050610cb081610c8c565b92915050565b5f819050919050565b610cc881610cb6565b8114610cd2575f80fd5b50565b5f81359050610ce381610cbf565b92915050565b5f8060408385031215610cff57610cfe610c7b565b5b5f610d0c85828601610ca2565b9250506020610d1d85828601610cd5565b9150509250929050565b5f60208284031215610d3c57610d3b610c7b565b5b5f610d4984828501610ca2565b91505092915050565b5f73ffffffffffffffffffffffffffffffffffffffff82169050919050565b5f610d7b82610d52565b9050919050565b610d8b81610d71565b8114610d95575f80fd5b50565b5f81359050610da681610d82565b92915050565b5f80fd5b5f80fd5b5f80fd5b5f8083601f840112610dcd57610dcc610dac565b5b8235905067ffffffffffffffff811115610dea57610de9610db0565b5b602083019150836001820283011115610e0657610e05610db4565b5b9250929050565b5f805f8060608587031215610e2557610e24610c7b565b5b5f610e3287828801610d98565b945050602085013567ffffffffffffffff811115610e5357610e52610c7f565b5b610e5f87828801610db8565b93509350506040610e7287828801610d98565b91505092959194509250565b5f60208284031215610e9357610e92610c7b565b5b5f610ea084828501610cd5565b91505092915050565b610eb281610d71565b82525050565b5f602082019050610ecb5f830184610ea9565b92915050565b610eda81610c83565b82525050565b5f602082019050610ef35f830184610ed1565b92915050565b610f0281610cb6565b82525050565b5f602082019050610f1b5f830184610ef9565b92915050565b7f4e487b71000000000000000000000000000000000000000000000000000000005f52603260045260245ffd5b7f4e487b71000000000000000000000000000000000000000000000000000000005f52601160045260245ffd5b5f610f8582610cb6565b9150610f9083610cb6565b9250828203905081811115610fa857610fa7610f4e565b5b92915050565b7f4e487b71000000000000000000000000000000000000000000000000000000005f52603160045260245ffd5b5f610fe582610cb6565b9150610ff083610cb6565b925082820190508082111561100857611007610f4e565b5b92915050565b5f81905092915050565b828183375f83830152505050565b5f611031838561100e565b935061103e838584611018565b82840190509392505050565b5f611056828486611026565b91508190509392505050565b5f81519050919050565b5f82825260208201905092915050565b8281835e5f83830152505050565b5f601f19601f8301169050919050565b5f6110a482611062565b6110ae818561106c565b93506110be81856020860161107c565b6110c78161108a565b840191505092915050565b7f4e487b71000000000000000000000000000000000000000000000000000000005f52602160045260245ffd5b600281106111105761110f6110d2565b5b50565b5f819050611120826110ff565b919050565b5f61112f82611113565b9050919050565b61113f81611125565b82525050565b5f6080820190506111585f830187610ea9565b6111656020830186610ef9565b8181036040830152611177818561109a565b90506111866060830184611136565b95945050505050565b5f8115159050919050565b6111a38161118f565b81146111ad575f80fd5b50565b5f815190506111be8161119a565b92915050565b5f602082840312156111d9576111d8610c7b565b5b5f6111e6848285016111b0565b91505092915050565b5f82825260208201905092915050565b7f57696c6c4d6f64756c653a205061796f75742066726f6d206f776e65722773205f8201527f53616665206661696c6564000000000000000000000000000000000000000000602082015250565b5f611259602b836111ef565b9150611264826111ff565b604082019050919050565b5f6020820190508181035f8301526112868161124d565b9050919050565b5f6040820190506112a05f830185610ea9565b6112ad6020830184610ef9565b9392505050565b5f6112be82610cb6565b91506112c983610cb6565b92508282026112d781610cb6565b915082820484148315176112ee576112ed610f4e565b5b509291505056fea2646970667358221220904f771dd39a5c5c7375e2c76e2a0728e9ab6517fd021d4d4e1bbcb15d0a1f3064736f6c634300081a0033","opcodes":"PUSH1 0x80 PUSH1 0x40 MSTORE CALLVALUE DUP1 ISZERO PUSH1 0xE JUMPI PUSH0 DUP1 REVERT JUMPDEST POP PUSH2 0x132B DUP1 PUSH2 0x1C PUSH0 CODECOPY PUSH0 RETURN INVALID PUSH1 0x80 PUSH1 0x40 MSTORE CALLVALUE DUP1 ISZERO PUSH2 0xF JUMPI PUSH0 DUP1 REVERT JUMPDEST POP PUSH1 0x4 CALLDATASIZE LT PUSH2 0x60 JUMPI PUSH0 CALLDATALOAD PUSH1 0xE0 SHR DUP1 PUSH4 0x5C36B186 EQ PUSH2 0x64 JUMPI DUP1 PUSH4 0xA17E094C EQ PUSH2 0x6E JUMPI DUP1 PUSH4 0xB7D3FF37 EQ PUSH2 0x8A JUMPI DUP1 PUSH4 0xBB66660B EQ PUSH2 0xA6 JUMPI DUP1 PUSH4 0xCB35174A EQ PUSH2 0xC2 JUMPI DUP1 PUSH4 0xE2C5DB56 EQ PUSH2 0xDE JUMPI JUMPDEST PUSH0 DUP1 REVERT JUMPDEST PUSH2 0x6C PUSH2 0xFA JUMP JUMPDEST STOP JUMPDEST PUSH2 0x88 PUSH1 0x4 DUP1 CALLDATASIZE SUB DUP2 ADD SWAP1 PUSH2 0x83 SWAP2 SWAP1 PUSH2 0xCE9 JUMP JUMPDEST PUSH2 0x20A JUMP JUMPDEST STOP JUMPDEST PUSH2 0xA4 PUSH1 0x4 DUP1 CALLDATASIZE SUB DUP2 ADD SWAP1 PUSH2 0x9F SWAP2 SWAP1 PUSH2 0xCE9 JUMP JUMPDEST PUSH2 0x3C3 JUMP JUMPDEST STOP JUMPDEST PUSH2 0xC0 PUSH1 0x4 DUP1 CALLDATASIZE SUB DUP2 ADD SWAP1 PUSH2 0xBB SWAP2 SWAP1 PUSH2 0xD27 JUMP JUMPDEST PUSH2 0x553 JUMP JUMPDEST STOP JUMPDEST PUSH2 0xDC PUSH1 0x4 DUP1 CALLDATASIZE SUB DUP2 ADD SWAP1 PUSH2 0xD7 SWAP2 SWAP1 PUSH2 0xE0D JUMP JUMPDEST PUSH2 0x760 JUMP JUMPDEST STOP JUMPDEST PUSH2 0xF8 PUSH1 0x4 DUP1 CALLDATASIZE SUB DUP2 ADD SWAP1 PUSH2 0xF3 SWAP2 SWAP1 PUSH2 0xE7E JUMP JUMPDEST PUSH2 0xAD1 JUMP JUMPDEST STOP JUMPDEST PUSH0 CALLER SWAP1 POP PUSH0 DUP1 PUSH0 DUP4 PUSH20 0xFFFFFFFFFFFFFFFFFFFFFFFFFFFFFFFFFFFFFFFF AND PUSH20 0xFFFFFFFFFFFFFFFFFFFFFFFFFFFFFFFFFFFFFFFF AND DUP2 MSTORE PUSH1 0x20 ADD SWAP1 DUP2 MSTORE PUSH1 0x20 ADD PUSH0 KECCAK256 PUSH1 0x1 ADD SLOAD SUB PUSH2 0x181 JUMPI DUP1 PUSH1 0x40 MLOAD PUSH32 0x91E9B36700000000000000000000000000000000000000000000000000000000 DUP2 MSTORE PUSH1 0x4 ADD PUSH2 0x178 SWAP2 SWAP1 PUSH2 0xEB8 JUMP JUMPDEST PUSH1 0x40 MLOAD DUP1 SWAP2 SUB SWAP1 REVERT JUMPDEST TIMESTAMP PUSH0 DUP1 DUP4 PUSH20 0xFFFFFFFFFFFFFFFFFFFFFFFFFFFFFFFFFFFFFFFF AND PUSH20 0xFFFFFFFFFFFFFFFFFFFFFFFFFFFFFFFFFFFFFFFF AND DUP2 MSTORE PUSH1 0x20 ADD SWAP1 DUP2 MSTORE PUSH1 0x20 ADD PUSH0 KECCAK256 PUSH0 ADD DUP2 SWAP1 SSTORE POP DUP1 PUSH20 0xFFFFFFFFFFFFFFFFFFFFFFFFFFFFFFFFFFFFFFFF AND PUSH32 0xFEE8775BA9B0F00B87DB291C081D99DE518BDEBB6CCFA2482CC5882FE69307E5 PUSH1 0x40 MLOAD PUSH1 0x40 MLOAD DUP1 SWAP2 SUB SWAP1 LOG2 POP JUMP JUMPDEST PUSH0 CALLER SWAP1 POP PUSH0 DUP1 PUSH0 DUP4 PUSH20 0xFFFFFFFFFFFFFFFFFFFFFFFFFFFFFFFFFFFFFFFF AND PUSH20 0xFFFFFFFFFFFFFFFFFFFFFFFFFFFFFFFFFFFFFFFF AND DUP2 MSTORE PUSH1 0x20 ADD SWAP1 DUP2 MSTORE PUSH1 0x20 ADD PUSH0 KECCAK256 SWAP1 POP PUSH0 DUP2 PUSH1 0x1 ADD SLOAD SUB PUSH2 0x295 JUMPI DUP2 PUSH1 0x40 MLOAD PUSH32 0x91E9B36700000000000000000000000000000000000000000000000000000000 DUP2 MSTORE PUSH1 0x4 ADD PUSH2 0x28C SWAP2 SWAP1 PUSH2 0xEB8 JUMP JUMPDEST PUSH1 0x40 MLOAD DUP1 SWAP2 SUB SWAP1 REVERT JUMPDEST PUSH0 DUP4 SUB PUSH2 0x2CE JUMPI PUSH1 0x40 MLOAD PUSH32 0x7CC3DA0700000000000000000000000000000000000000000000000000000000 DUP2 MSTORE PUSH1 0x4 ADD PUSH1 0x40 MLOAD DUP1 SWAP2 SUB SWAP1 REVERT JUMPDEST PUSH0 DUP2 PUSH1 0x2 ADD PUSH0 DUP7 DUP2 MSTORE PUSH1 0x20 ADD SWAP1 DUP2 MSTORE PUSH1 0x20 ADD PUSH0 KECCAK256 SLOAD GT ISZERO PUSH2 0x326 JUMPI DUP4 PUSH1 0x40 MLOAD PUSH32 0x3C6974AF00000000000000000000000000000000000000000000000000000000 DUP2 MSTORE PUSH1 0x4 ADD PUSH2 0x31D SWAP2 SWAP1 PUSH2 0xEE0 JUMP JUMPDEST PUSH1 0x40 MLOAD DUP1 SWAP2 SUB SWAP1 REVERT JUMPDEST DUP3 DUP2 PUSH1 0x2 ADD PUSH0 DUP7 DUP2 MSTORE PUSH1 0x20 ADD SWAP1 DUP2 MSTORE PUSH1 0x20 ADD PUSH0 KECCAK256 DUP2 SWAP1 SSTORE POP DUP1 PUSH1 0x3 ADD DUP5 SWAP1 DUP1 PUSH1 0x1 DUP2 SLOAD ADD DUP1 DUP3 SSTORE DUP1 SWAP2 POP POP PUSH1 0x1 SWAP1 SUB SWAP1 PUSH0 MSTORE PUSH1 0x20 PUSH0 KECCAK256 ADD PUSH0 SWAP1 SWAP2 SWAP1 SWAP2 SWAP1 SWAP2 POP SSTORE TIMESTAMP DUP2 PUSH0 ADD DUP2 SWAP1 SSTORE POP DUP4 DUP3 PUSH20 0xFFFFFFFFFFFFFFFFFFFFFFFFFFFFFFFFFFFFFFFF AND PUSH32 0x1D86A90A29091360106087E7F42FE03CBD690A198E9E7AA2DF2F33C0B7385A52 DUP6 PUSH1 0x40 MLOAD PUSH2 0x3B5 SWAP2 SWAP1 PUSH2 0xF08 JUMP JUMPDEST PUSH1 0x40 MLOAD DUP1 SWAP2 SUB SWAP1 LOG3 POP POP POP POP JUMP JUMPDEST PUSH0 CALLER SWAP1 POP PUSH0 DUP1 PUSH0 DUP4 PUSH20 0xFFFFFFFFFFFFFFFFFFFFFFFFFFFFFFFFFFFFFFFF AND PUSH20 0xFFFFFFFFFFFFFFFFFFFFFFFFFFFFFFFFFFFFFFFF AND DUP2 MSTORE PUSH1 0x20 ADD SWAP1 DUP2 MSTORE PUSH1 0x20 ADD PUSH0 KECCAK256 SWAP1 POP PUSH0 DUP2 PUSH1 0x1 ADD SLOAD SUB PUSH2 0x44E JUMPI DUP2 PUSH1 0x40 MLOAD PUSH32 0x91E9B36700000000000000000000000000000000000000000000000000000000 DUP2 MSTORE PUSH1 0x4 ADD PUSH2 0x445 SWAP2 SWAP1 PUSH2 0xEB8 JUMP JUMPDEST PUSH1 0x40 MLOAD DUP1 SWAP2 SUB SWAP1 REVERT JUMPDEST PUSH0 DUP2 PUSH1 0x2 ADD PUSH0 DUP7 DUP2 MSTORE PUSH1 0x20 ADD SWAP1 DUP2 MSTORE PUSH1 0x20 ADD PUSH0 KECCAK256 SLOAD SUB PUSH2 0x4A5 JUMPI DUP4 PUSH1 0x40 MLOAD PUSH32 0xF8E527100000000000000000000000000000000000000000000000000000000 DUP2 MSTORE PUSH1 0x4 ADD PUSH2 0x49C SWAP2 SWAP1 PUSH2 0xEE0 JUMP JUMPDEST PUSH1 0x40 MLOAD DUP1 SWAP2 SUB SWAP1 REVERT JUMPDEST PUSH0 DUP4 SUB PUSH2 0x4DE JUMPI PUSH1 0x40 MLOAD PUSH32 0x7CC3DA0700000000000000000000000000000000000000000000000000000000 DUP2 MSTORE PUSH1 0x4 ADD PUSH1 0x40 MLOAD DUP1 SWAP2 SUB SWAP1 REVERT JUMPDEST DUP3 DUP2 PUSH1 0x2 ADD PUSH0 DUP7 DUP2 MSTORE PUSH1 0x20 ADD SWAP1 DUP2 MSTORE PUSH1 0x20 ADD PUSH0 KECCAK256 DUP2 SWAP1 SSTORE POP TIMESTAMP DUP2 PUSH0 ADD DUP2 SWAP1 SSTORE POP DUP4 DUP3 PUSH20 0xFFFFFFFFFFFFFFFFFFFFFFFFFFFFFFFFFFFFFFFF AND PUSH32 0x753EBA349A8C74370E6335C9DED25404D1C6B742928F35D2EB17A92B8DED105C DUP6 PUSH1 0x40 MLOAD PUSH2 0x545 SWAP2 SWAP1 PUSH2 0xF08 JUMP JUMPDEST PUSH1 0x40 MLOAD DUP1 SWAP2 SUB SWAP1 LOG3 POP POP POP POP JUMP JUMPDEST PUSH0 CALLER SWAP1 POP PUSH0 DUP1 PUSH0 DUP4 PUSH20 0xFFFFFFFFFFFFFFFFFFFFFFFFFFFFFFFFFFFFFFFF AND PUSH20 0xFFFFFFFFFFFFFFFFFFFFFFFFFFFFFFFFFFFFFFFF AND DUP2 MSTORE PUSH1 0x20 ADD SWAP1 DUP2 MSTORE PUSH1 0x20 ADD PUSH0 KECCAK256 SWAP1 POP PUSH0 DUP2 PUSH1 0x1 ADD SLOAD SUB PUSH2 0x5DE JUMPI DUP2 PUSH1 0x40 MLOAD PUSH32 0x91E9B36700000000000000000000000000000000000000000000000000000000 DUP2 MSTORE PUSH1 0x4 ADD PUSH2 0x5D5 SWAP2 SWAP1 PUSH2 0xEB8 JUMP JUMPDEST PUSH1 0x40 MLOAD DUP1 SWAP2 SUB SWAP1 REVERT JUMPDEST PUSH0 DUP2 PUSH1 0x2 ADD PUSH0 DUP6 DUP2 MSTORE PUSH1 0x20 ADD SWAP1 DUP2 MSTORE PUSH1 0x20 ADD PUSH0 KECCAK256 SLOAD SUB PUSH2 0x635 JUMPI DUP3 PUSH1 0x40 MLOAD PUSH32 0xF8E527100000000000000000000000000000000000000000000000000000000 DUP2 MSTORE PUSH1 0x4 ADD PUSH2 0x62C SWAP2 SWAP1 PUSH2 0xEE0 JUMP JUMPDEST PUSH1 0x40 MLOAD DUP1 SWAP2 SUB SWAP1 REVERT JUMPDEST DUP1 PUSH1 0x2 ADD PUSH0 DUP5 DUP2 MSTORE PUSH1 0x20 ADD SWAP1 DUP2 MSTORE PUSH1 0x20 ADD PUSH0 KECCAK256 PUSH0 SWAP1 SSTORE PUSH0 JUMPDEST DUP2 PUSH1 0x3 ADD DUP1 SLOAD SWAP1 POP DUP2 LT ISZERO PUSH2 0x70E JUMPI DUP4 DUP3 PUSH1 0x3 ADD DUP3 DUP2 SLOAD DUP2 LT PUSH2 0x673 JUMPI PUSH2 0x672 PUSH2 0xF21 JUMP JUMPDEST JUMPDEST SWAP1 PUSH0 MSTORE PUSH1 0x20 PUSH0 KECCAK256 ADD SLOAD SUB PUSH2 0x701 JUMPI DUP2 PUSH1 0x3 ADD PUSH1 0x1 DUP4 PUSH1 0x3 ADD DUP1 SLOAD SWAP1 POP PUSH2 0x699 SWAP2 SWAP1 PUSH2 0xF7B JUMP JUMPDEST DUP2 SLOAD DUP2 LT PUSH2 0x6AA JUMPI PUSH2 0x6A9 PUSH2 0xF21 JUMP JUMPDEST JUMPDEST SWAP1 PUSH0 MSTORE PUSH1 0x20 PUSH0 KECCAK256 ADD SLOAD DUP3 PUSH1 0x3 ADD DUP3 DUP2 SLOAD DUP2 LT PUSH2 0x6C9 JUMPI PUSH2 0x6C8 PUSH2 0xF21 JUMP JUMPDEST JUMPDEST SWAP1 PUSH0 MSTORE PUSH1 0x20 PUSH0 KECCAK256 ADD DUP2 SWAP1 SSTORE POP DUP2 PUSH1 0x3 ADD DUP1 SLOAD DUP1 PUSH2 0x6E9 JUMPI PUSH2 0x6E8 PUSH2 0xFAE JUMP JUMPDEST JUMPDEST PUSH1 0x1 SWAP1 SUB DUP2 DUP2 SWAP1 PUSH0 MSTORE PUSH1 0x20 PUSH0 KECCAK256 ADD PUSH0 SWAP1 SSTORE SWAP1 SSTORE PUSH2 0x70E JUMP JUMPDEST DUP1 DUP1 PUSH1 0x1 ADD SWAP2 POP POP PUSH2 0x64D JUMP JUMPDEST POP TIMESTAMP DUP2 PUSH0 ADD DUP2 SWAP1 SSTORE POP DUP3 DUP3 PUSH20 0xFFFFFFFFFFFFFFFFFFFFFFFFFFFFFFFFFFFFFFFF AND PUSH32 0x4AD3156F64B29B4B9D965A5B985E869A3047DA0ED08060B7F697DB2900260E6E PUSH1 0x40 MLOAD PUSH1 0x40 MLOAD DUP1 SWAP2 SUB SWAP1 LOG3 POP POP POP JUMP JUMPDEST PUSH0 DUP1 PUSH0 DUP7 PUSH20 0xFFFFFFFFFFFFFFFFFFFFFFFFFFFFFFFFFFFFFFFF AND PUSH20 0xFFFFFFFFFFFFFFFFFFFFFFFFFFFFFFFFFFFFFFFF AND DUP2 MSTORE PUSH1 0x20 ADD SWAP1 DUP2 MSTORE PUSH1 0x20 ADD PUSH0 KECCAK256 SWAP1 POP PUSH0 DUP2 PUSH1 0x1 ADD SLOAD SUB PUSH2 0x7E7 JUMPI DUP5 PUSH1 0x40 MLOAD PUSH32 0x91E9B36700000000000000000000000000000000000000000000000000000000 DUP2 MSTORE PUSH1 0x4 ADD PUSH2 0x7DE SWAP2 SWAP1 PUSH2 0xEB8 JUMP JUMPDEST PUSH1 0x40 MLOAD DUP1 SWAP2 SUB SWAP1 REVERT JUMPDEST DUP1 PUSH1 0x1 ADD SLOAD DUP2 PUSH0 ADD SLOAD PUSH2 0x7FA SWAP2 SWAP1 PUSH2 0xFDB JUMP JUMPDEST TIMESTAMP LT ISZERO PUSH2 0x850 JUMPI DUP1 PUSH1 0x1 ADD SLOAD DUP2 PUSH0 ADD SLOAD PUSH2 0x814 SWAP2 SWAP1 PUSH2 0xFDB JUMP JUMPDEST PUSH1 0x40 MLOAD PUSH32 0x8DCAFA5D00000000000000000000000000000000000000000000000000000000 DUP2 MSTORE PUSH1 0x4 ADD PUSH2 0x847 SWAP2 SWAP1 PUSH2 0xF08 JUMP JUMPDEST PUSH1 0x40 MLOAD DUP1 SWAP2 SUB SWAP1 REVERT JUMPDEST PUSH0 DUP5 DUP5 PUSH1 0x40 MLOAD PUSH1 0x20 ADD PUSH2 0x864 SWAP3 SWAP2 SWAP1 PUSH2 0x104A JUMP JUMPDEST PUSH1 0x40 MLOAD PUSH1 0x20 DUP2 DUP4 SUB SUB DUP2 MSTORE SWAP1 PUSH1 0x40 MSTORE DUP1 MLOAD SWAP1 PUSH1 0x20 ADD KECCAK256 SWAP1 POP PUSH0 DUP3 PUSH1 0x2 ADD PUSH0 DUP4 DUP2 MSTORE PUSH1 0x20 ADD SWAP1 DUP2 MSTORE PUSH1 0x20 ADD PUSH0 KECCAK256 SLOAD SWAP1 POP PUSH0 DUP2 SUB PUSH2 0x8CC JUMPI PUSH1 0x40 MLOAD PUSH32 0x969BF72800000000000000000000000000000000000000000000000000000000 DUP2 MSTORE PUSH1 0x4 ADD PUSH1 0x40 MLOAD DUP1 SWAP2 SUB SWAP1 REVERT JUMPDEST PUSH0 DUP8 PUSH20 0xFFFFFFFFFFFFFFFFFFFFFFFFFFFFFFFFFFFFFFFF AND PUSH4 0x468721A7 DUP7 DUP5 PUSH1 0x40 MLOAD DUP1 PUSH1 0x20 ADD PUSH1 0x40 MSTORE DUP1 PUSH0 DUP2 MSTORE POP PUSH0 PUSH1 0x40 MLOAD DUP6 PUSH4 0xFFFFFFFF AND PUSH1 0xE0 SHL DUP2 MSTORE PUSH1 0x4 ADD PUSH2 0x91A SWAP5 SWAP4 SWAP3 SWAP2 SWAP1 PUSH2 0x1145 JUMP JUMPDEST PUSH1 0x20 PUSH1 0x40 MLOAD DUP1 DUP4 SUB DUP2 PUSH0 DUP8 GAS CALL ISZERO DUP1 ISZERO PUSH2 0x936 JUMPI RETURNDATASIZE PUSH0 DUP1 RETURNDATACOPY RETURNDATASIZE PUSH0 REVERT JUMPDEST POP POP POP POP PUSH1 0x40 MLOAD RETURNDATASIZE PUSH1 0x1F NOT PUSH1 0x1F DUP3 ADD AND DUP3 ADD DUP1 PUSH1 0x40 MSTORE POP DUP2 ADD SWAP1 PUSH2 0x95A SWAP2 SWAP1 PUSH2 0x11C4 JUMP JUMPDEST SWAP1 POP DUP1 PUSH2 0x99C JUMPI PUSH1 0x40 MLOAD PUSH32 0x8C379A000000000000000000000000000000000000000000000000000000000 DUP2 MSTORE PUSH1 0x4 ADD PUSH2 0x993 SWAP1 PUSH2 0x126F JUMP JUMPDEST PUSH1 0x40 MLOAD DUP1 SWAP2 SUB SWAP1 REVERT JUMPDEST DUP4 PUSH1 0x2 ADD PUSH0 DUP5 DUP2 MSTORE PUSH1 0x20 ADD SWAP1 DUP2 MSTORE PUSH1 0x20 ADD PUSH0 KECCAK256 PUSH0 SWAP1 SSTORE PUSH0 JUMPDEST DUP5 PUSH1 0x3 ADD DUP1 SLOAD SWAP1 POP DUP2 LT ISZERO PUSH2 0xA75 JUMPI DUP4 DUP6 PUSH1 0x3 ADD DUP3 DUP2 SLOAD DUP2 LT PUSH2 0x9DA JUMPI PUSH2 0x9D9 PUSH2 0xF21 JUMP JUMPDEST JUMPDEST SWAP1 PUSH0 MSTORE PUSH1 0x20 PUSH0 KECCAK256 ADD SLOAD SUB PUSH2 0xA68 JUMPI DUP5 PUSH1 0x3 ADD PUSH1 0x1 DUP7 PUSH1 0x3 ADD DUP1 SLOAD SWAP1 POP PUSH2 0xA00 SWAP2 SWAP1 PUSH2 0xF7B JUMP JUMPDEST DUP2 SLOAD DUP2 LT PUSH2 0xA11 JUMPI PUSH2 0xA10 PUSH2 0xF21 JUMP JUMPDEST JUMPDEST SWAP1 PUSH0 MSTORE PUSH1 0x20 PUSH0 KECCAK256 ADD SLOAD DUP6 PUSH1 0x3 ADD DUP3 DUP2 SLOAD DUP2 LT PUSH2 0xA30 JUMPI PUSH2 0xA2F PUSH2 0xF21 JUMP JUMPDEST JUMPDEST SWAP1 PUSH0 MSTORE PUSH1 0x20 PUSH0 KECCAK256 ADD DUP2 SWAP1 SSTORE POP DUP5 PUSH1 0x3 ADD DUP1 SLOAD DUP1 PUSH2 0xA50 JUMPI PUSH2 0xA4F PUSH2 0xFAE JUMP JUMPDEST JUMPDEST PUSH1 0x1 SWAP1 SUB DUP2 DUP2 SWAP1 PUSH0 MSTORE PUSH1 0x20 PUSH0 KECCAK256 ADD PUSH0 SWAP1 SSTORE SWAP1 SSTORE PUSH2 0xA75 JUMP JUMPDEST DUP1 DUP1 PUSH1 0x1 ADD SWAP2 POP POP PUSH2 0x9B4 JUMP JUMPDEST POP DUP3 DUP9 PUSH20 0xFFFFFFFFFFFFFFFFFFFFFFFFFFFFFFFFFFFFFFFF AND PUSH32 0x6156EFF72C525E98E661BF25957E81442726C50572181F2E8599B52F4CC0FAD9 DUP8 DUP6 PUSH1 0x40 MLOAD PUSH2 0xABF SWAP3 SWAP2 SWAP1 PUSH2 0x128D JUMP JUMPDEST PUSH1 0x40 MLOAD DUP1 SWAP2 SUB SWAP1 LOG3 POP POP POP POP POP POP POP POP JUMP JUMPDEST PUSH0 CALLER SWAP1 POP PUSH0 DUP1 PUSH0 CALLER PUSH20 0xFFFFFFFFFFFFFFFFFFFFFFFFFFFFFFFFFFFFFFFF AND PUSH20 0xFFFFFFFFFFFFFFFFFFFFFFFFFFFFFFFFFFFFFFFF AND DUP2 MSTORE PUSH1 0x20 ADD SWAP1 DUP2 MSTORE PUSH1 0x20 ADD PUSH0 KECCAK256 PUSH0 ADD SLOAD GT ISZERO PUSH2 0xB4D JUMPI PUSH1 0x40 MLOAD PUSH32 0x781E96E800000000000000000000000000000000000000000000000000000000 DUP2 MSTORE PUSH1 0x4 ADD PUSH1 0x40 MLOAD DUP1 SWAP2 SUB SWAP1 REVERT JUMPDEST PUSH0 DUP3 GT PUSH2 0xB86 JUMPI PUSH1 0x40 MLOAD PUSH32 0x2C84027700000000000000000000000000000000000000000000000000000000 DUP2 MSTORE PUSH1 0x4 ADD PUSH1 0x40 MLOAD DUP1 SWAP2 SUB SWAP1 REVERT JUMPDEST TIMESTAMP PUSH0 DUP1 DUP4 PUSH20 0xFFFFFFFFFFFFFFFFFFFFFFFFFFFFFFFFFFFFFFFF AND PUSH20 0xFFFFFFFFFFFFFFFFFFFFFFFFFFFFFFFFFFFFFFFF AND DUP2 MSTORE PUSH1 0x20 ADD SWAP1 DUP2 MSTORE PUSH1 0x20 ADD PUSH0 KECCAK256 PUSH0 ADD DUP2 SWAP1 SSTORE POP PUSH3 0x15180 DUP3 PUSH2 0xBD8 SWAP2 SWAP1 PUSH2 0x12B4 JUMP JUMPDEST PUSH0 DUP1 DUP4 PUSH20 0xFFFFFFFFFFFFFFFFFFFFFFFFFFFFFFFFFFFFFFFF AND PUSH20 0xFFFFFFFFFFFFFFFFFFFFFFFFFFFFFFFFFFFFFFFF AND DUP2 MSTORE PUSH1 0x20 ADD SWAP1 DUP2 MSTORE PUSH1 0x20 ADD PUSH0 KECCAK256 PUSH1 0x1 ADD DUP2 SWAP1 SSTORE POP DUP1 PUSH20 0xFFFFFFFFFFFFFFFFFFFFFFFFFFFFFFFFFFFFFFFF AND PUSH32 0xD40DC4A639C90600691397F655099ADBA04D6B763EF2122630EDD47C09F1B6F9 PUSH3 0x15180 DUP5 PUSH2 0xC62 SWAP2 SWAP1 PUSH2 0x12B4 JUMP JUMPDEST PUSH1 0x40 MLOAD PUSH2 0xC6F SWAP2 SWAP1 PUSH2 0xF08 JUMP JUMPDEST PUSH1 0x40 MLOAD DUP1 SWAP2 SUB SWAP1 LOG2 POP POP JUMP JUMPDEST PUSH0 DUP1 REVERT JUMPDEST PUSH0 DUP1 REVERT JUMPDEST PUSH0 DUP2 SWAP1 POP SWAP2 SWAP1 POP JUMP JUMPDEST PUSH2 0xC95 DUP2 PUSH2 0xC83 JUMP JUMPDEST DUP2 EQ PUSH2 0xC9F JUMPI PUSH0 DUP1 REVERT JUMPDEST POP JUMP JUMPDEST PUSH0 DUP2 CALLDATALOAD SWAP1 POP PUSH2 0xCB0 DUP2 PUSH2 0xC8C JUMP JUMPDEST SWAP3 SWAP2 POP POP JUMP JUMPDEST PUSH0 DUP2 SWAP1 POP SWAP2 SWAP1 POP JUMP JUMPDEST PUSH2 0xCC8 DUP2 PUSH2 0xCB6 JUMP JUMPDEST DUP2 EQ PUSH2 0xCD2 JUMPI PUSH0 DUP1 REVERT JUMPDEST POP JUMP JUMPDEST PUSH0 DUP2 CALLDATALOAD SWAP1 POP PUSH2 0xCE3 DUP2 PUSH2 0xCBF JUMP JUMPDEST SWAP3 SWAP2 POP POP JUMP JUMPDEST PUSH0 DUP1 PUSH1 0x40 DUP4 DUP6 SUB SLT ISZERO PUSH2 0xCFF JUMPI PUSH2 0xCFE PUSH2 0xC7B JUMP JUMPDEST JUMPDEST PUSH0 PUSH2 0xD0C DUP6 DUP3 DUP7 ADD PUSH2 0xCA2 JUMP JUMPDEST SWAP3 POP POP PUSH1 0x20 PUSH2 0xD1D DUP6 DUP3 DUP7 ADD PUSH2 0xCD5 JUMP JUMPDEST SWAP2 POP POP SWAP3 POP SWAP3 SWAP1 POP JUMP JUMPDEST PUSH0 PUSH1 0x20 DUP3 DUP5 SUB SLT ISZERO PUSH2 0xD3C JUMPI PUSH2 0xD3B PUSH2 0xC7B JUMP JUMPDEST JUMPDEST PUSH0 PUSH2 0xD49 DUP5 DUP3 DUP6 ADD PUSH2 0xCA2 JUMP JUMPDEST SWAP2 POP POP SWAP3 SWAP2 POP POP JUMP JUMPDEST PUSH0 PUSH20 0xFFFFFFFFFFFFFFFFFFFFFFFFFFFFFFFFFFFFFFFF DUP3 AND SWAP1 POP SWAP2 SWAP1 POP JUMP JUMPDEST PUSH0 PUSH2 0xD7B DUP3 PUSH2 0xD52 JUMP JUMPDEST SWAP1 POP SWAP2 SWAP1 POP JUMP JUMPDEST PUSH2 0xD8B DUP2 PUSH2 0xD71 JUMP JUMPDEST DUP2 EQ PUSH2 0xD95 JUMPI PUSH0 DUP1 REVERT JUMPDEST POP JUMP JUMPDEST PUSH0 DUP2 CALLDATALOAD SWAP1 POP PUSH2 0xDA6 DUP2 PUSH2 0xD82 JUMP JUMPDEST SWAP3 SWAP2 POP POP JUMP JUMPDEST PUSH0 DUP1 REVERT JUMPDEST PUSH0 DUP1 REVERT JUMPDEST PUSH0 DUP1 REVERT JUMPDEST PUSH0 DUP1 DUP4 PUSH1 0x1F DUP5 ADD SLT PUSH2 0xDCD JUMPI PUSH2 0xDCC PUSH2 0xDAC JUMP JUMPDEST JUMPDEST DUP3 CALLDATALOAD SWAP1 POP PUSH8 0xFFFFFFFFFFFFFFFF DUP2 GT ISZERO PUSH2 0xDEA JUMPI PUSH2 0xDE9 PUSH2 0xDB0 JUMP JUMPDEST JUMPDEST PUSH1 0x20 DUP4 ADD SWAP2 POP DUP4 PUSH1 0x1 DUP3 MUL DUP4 ADD GT ISZERO PUSH2 0xE06 JUMPI PUSH2 0xE05 PUSH2 0xDB4 JUMP JUMPDEST JUMPDEST SWAP3 POP SWAP3 SWAP1 POP JUMP JUMPDEST PUSH0 DUP1 PUSH0 DUP1 PUSH1 0x60 DUP6 DUP8 SUB SLT ISZERO PUSH2 0xE25 JUMPI PUSH2 0xE24 PUSH2 0xC7B JUMP JUMPDEST JUMPDEST PUSH0 PUSH2 0xE32 DUP8 DUP3 DUP9 ADD PUSH2 0xD98 JUMP JUMPDEST SWAP5 POP POP PUSH1 0x20 DUP6 ADD CALLDATALOAD PUSH8 0xFFFFFFFFFFFFFFFF DUP2 GT ISZERO PUSH2 0xE53 JUMPI PUSH2 0xE52 PUSH2 0xC7F JUMP JUMPDEST JUMPDEST PUSH2 0xE5F DUP8 DUP3 DUP9 ADD PUSH2 0xDB8 JUMP JUMPDEST SWAP4 POP SWAP4 POP POP PUSH1 0x40 PUSH2 0xE72 DUP8 DUP3 DUP9 ADD PUSH2 0xD98 JUMP JUMPDEST SWAP2 POP POP SWAP3 SWAP6 SWAP2 SWAP5 POP SWAP3 POP JUMP JUMPDEST PUSH0 PUSH1 0x20 DUP3 DUP5 SUB SLT ISZERO PUSH2 0xE93 JUMPI PUSH2 0xE92 PUSH2 0xC7B JUMP JUMPDEST JUMPDEST PUSH0 PUSH2 0xEA0 DUP5 DUP3 DUP6 ADD PUSH2 0xCD5 JUMP JUMPDEST SWAP2 POP POP SWAP3 SWAP2 POP POP JUMP JUMPDEST PUSH2 0xEB2 DUP2 PUSH2 0xD71 JUMP JUMPDEST DUP3 MSTORE POP POP JUMP JUMPDEST PUSH0 PUSH1 0x20 DUP3 ADD SWAP1 POP PUSH2 0xECB PUSH0 DUP4 ADD DUP5 PUSH2 0xEA9 JUMP JUMPDEST SWAP3 SWAP2 POP POP JUMP JUMPDEST PUSH2 0xEDA DUP2 PUSH2 0xC83 JUMP JUMPDEST DUP3 MSTORE POP POP JUMP JUMPDEST PUSH0 PUSH1 0x20 DUP3 ADD SWAP1 POP PUSH2 0xEF3 PUSH0 DUP4 ADD DUP5 PUSH2 0xED1 JUMP JUMPDEST SWAP3 SWAP2 POP POP JUMP JUMPDEST PUSH2 0xF02 DUP2 PUSH2 0xCB6 JUMP JUMPDEST DUP3 MSTORE POP POP JUMP JUMPDEST PUSH0 PUSH1 0x20 DUP3 ADD SWAP1 POP PUSH2 0xF1B PUSH0 DUP4 ADD DUP5 PUSH2 0xEF9 JUMP JUMPDEST SWAP3 SWAP2 POP POP JUMP JUMPDEST PUSH32 0x4E487B7100000000000000000000000000000000000000000000000000000000 PUSH0 MSTORE PUSH1 0x32 PUSH1 0x4 MSTORE PUSH1 0x24 PUSH0 REVERT JUMPDEST PUSH32 0x4E487B7100000000000000000000000000000000000000000000000000000000 PUSH0 MSTORE PUSH1 0x11 PUSH1 0x4 MSTORE PUSH1 0x24 PUSH0 REVERT JUMPDEST PUSH0 PUSH2 0xF85 DUP3 PUSH2 0xCB6 JUMP JUMPDEST SWAP2 POP PUSH2 0xF90 DUP4 PUSH2 0xCB6 JUMP JUMPDEST SWAP3 POP DUP3 DUP3 SUB SWAP1 POP DUP2 DUP2 GT ISZERO PUSH2 0xFA8 JUMPI PUSH2 0xFA7 PUSH2 0xF4E JUMP JUMPDEST JUMPDEST SWAP3 SWAP2 POP POP JUMP JUMPDEST PUSH32 0x4E487B7100000000000000000000000000000000000000000000000000000000 PUSH0 MSTORE PUSH1 0x31 PUSH1 0x4 MSTORE PUSH1 0x24 PUSH0 REVERT JUMPDEST PUSH0 PUSH2 0xFE5 DUP3 PUSH2 0xCB6 JUMP JUMPDEST SWAP2 POP PUSH2 0xFF0 DUP4 PUSH2 0xCB6 JUMP JUMPDEST SWAP3 POP DUP3 DUP3 ADD SWAP1 POP DUP1 DUP3 GT ISZERO PUSH2 0x1008 JUMPI PUSH2 0x1007 PUSH2 0xF4E JUMP JUMPDEST JUMPDEST SWAP3 SWAP2 POP POP JUMP JUMPDEST PUSH0 DUP2 SWAP1 POP SWAP3 SWAP2 POP POP JUMP JUMPDEST DUP3 DUP2 DUP4 CALLDATACOPY PUSH0 DUP4 DUP4 ADD MSTORE POP POP POP JUMP JUMPDEST PUSH0 PUSH2 0x1031 DUP4 DUP6 PUSH2 0x100E JUMP JUMPDEST SWAP4 POP PUSH2 0x103E DUP4 DUP6 DUP5 PUSH2 0x1018 JUMP JUMPDEST DUP3 DUP5 ADD SWAP1 POP SWAP4 SWAP3 POP POP POP JUMP JUMPDEST PUSH0 PUSH2 0x1056 DUP3 DUP5 DUP7 PUSH2 0x1026 JUMP JUMPDEST SWAP2 POP DUP2 SWAP1 POP SWAP4 SWAP3 POP POP POP JUMP JUMPDEST PUSH0 DUP2 MLOAD SWAP1 POP SWAP2 SWAP1 POP JUMP JUMPDEST PUSH0 DUP3 DUP3 MSTORE PUSH1 0x20 DUP3 ADD SWAP1 POP SWAP3 SWAP2 POP POP JUMP JUMPDEST DUP3 DUP2 DUP4 MCOPY PUSH0 DUP4 DUP4 ADD MSTORE POP POP POP JUMP JUMPDEST PUSH0 PUSH1 0x1F NOT PUSH1 0x1F DUP4 ADD AND SWAP1 POP SWAP2 SWAP1 POP JUMP JUMPDEST PUSH0 PUSH2 0x10A4 DUP3 PUSH2 0x1062 JUMP JUMPDEST PUSH2 0x10AE DUP2 DUP6 PUSH2 0x106C JUMP JUMPDEST SWAP4 POP PUSH2 0x10BE DUP2 DUP6 PUSH1 0x20 DUP7 ADD PUSH2 0x107C JUMP JUMPDEST PUSH2 0x10C7 DUP2 PUSH2 0x108A JUMP JUMPDEST DUP5 ADD SWAP2 POP POP SWAP3 SWAP2 POP POP JUMP JUMPDEST PUSH32 0x4E487B7100000000000000000000000000000000000000000000000000000000 PUSH0 MSTORE PUSH1 0x21 PUSH1 0x4 MSTORE PUSH1 0x24 PUSH0 REVERT JUMPDEST PUSH1 0x2 DUP2 LT PUSH2 0x1110 JUMPI PUSH2 0x110F PUSH2 0x10D2 JUMP JUMPDEST JUMPDEST POP JUMP JUMPDEST PUSH0 DUP2 SWAP1 POP PUSH2 0x1120 DUP3 PUSH2 0x10FF JUMP JUMPDEST SWAP2 SWAP1 POP JUMP JUMPDEST PUSH0 PUSH2 0x112F DUP3 PUSH2 0x1113 JUMP JUMPDEST SWAP1 POP SWAP2 SWAP1 POP JUMP JUMPDEST PUSH2 0x113F DUP2 PUSH2 0x1125 JUMP JUMPDEST DUP3 MSTORE POP POP JUMP JUMPDEST PUSH0 PUSH1 0x80 DUP3 ADD SWAP1 POP PUSH2 0x1158 PUSH0 DUP4 ADD DUP8 PUSH2 0xEA9 JUMP JUMPDEST PUSH2 0x1165 PUSH1 0x20 DUP4 ADD DUP7 PUSH2 0xEF9 JUMP JUMPDEST DUP2 DUP2 SUB PUSH1 0x40 DUP4 ADD MSTORE PUSH2 0x1177 DUP2 DUP6 PUSH2 0x109A JUMP JUMPDEST SWAP1 POP PUSH2 0x1186 PUSH1 0x60 DUP4 ADD DUP5 PUSH2 0x1136 JUMP JUMPDEST SWAP6 SWAP5 POP POP POP POP POP JUMP JUMPDEST PUSH0 DUP2 ISZERO ISZERO SWAP1 POP SWAP2 SWAP1 POP JUMP JUMPDEST PUSH2 0x11A3 DUP2 PUSH2 0x118F JUMP JUMPDEST DUP2 EQ PUSH2 0x11AD JUMPI PUSH0 DUP1 REVERT JUMPDEST POP JUMP JUMPDEST PUSH0 DUP2 MLOAD SWAP1 POP PUSH2 0x11BE DUP2 PUSH2 0x119A JUMP JUMPDEST SWAP3 SWAP2 POP POP JUMP JUMPDEST PUSH0 PUSH1 0x20 DUP3 DUP5 SUB SLT ISZERO PUSH2 0x11D9 JUMPI PUSH2 0x11D8 PUSH2 0xC7B JUMP JUMPDEST JUMPDEST PUSH0 PUSH2 0x11E6 DUP5 DUP3 DUP6 ADD PUSH2 0x11B0 JUMP JUMPDEST SWAP2 POP POP SWAP3 SWAP2 POP POP JUMP JUMPDEST PUSH0 DUP3 DUP3 MSTORE PUSH1 0x20 DUP3 ADD SWAP1 POP SWAP3 SWAP2 POP POP JUMP JUMPDEST PUSH32 0x57696C6C4D6F64756C653A205061796F75742066726F6D206F776E6572277320 PUSH0 DUP3 ADD MSTORE PUSH32 0x53616665206661696C6564000000000000000000000000000000000000000000 PUSH1 0x20 DUP3 ADD MSTORE POP JUMP JUMPDEST PUSH0 PUSH2 0x1259 PUSH1 0x2B DUP4 PUSH2 0x11EF JUMP JUMPDEST SWAP2 POP PUSH2 0x1264 DUP3 PUSH2 0x11FF JUMP JUMPDEST PUSH1 0x40 DUP3 ADD SWAP1 POP SWAP2 SWAP1 POP JUMP JUMPDEST PUSH0 PUSH1 0x20 DUP3 ADD SWAP1 POP DUP2 DUP2 SUB PUSH0 DUP4 ADD MSTORE PUSH2 0x1286 DUP2 PUSH2 0x124D JUMP JUMPDEST SWAP1 POP SWAP2 SWAP1 POP JUMP JUMPDEST PUSH0 PUSH1 0x40 DUP3 ADD SWAP1 POP PUSH2 0x12A0 PUSH0 DUP4 ADD DUP6 PUSH2 0xEA9 JUMP JUMPDEST PUSH2 0x12AD PUSH1 0x20 DUP4 ADD DUP5 PUSH2 0xEF9 JUMP JUMPDEST SWAP4 SWAP3 POP POP POP JUMP JUMPDEST PUSH0 PUSH2 0x12BE DUP3 PUSH2 0xCB6 JUMP JUMPDEST SWAP2 POP PUSH2 0x12C9 DUP4 PUSH2 0xCB6 JUMP JUMPDEST SWAP3 POP DUP3 DUP3 MUL PUSH2 0x12D7 DUP2 PUSH2 0xCB6 JUMP JUMPDEST SWAP2 POP DUP3 DUP3 DIV DUP5 EQ DUP4 ISZERO OR PUSH2 0x12EE JUMPI PUSH2 0x12ED PUSH2 0xF4E JUMP JUMPDEST JUMPDEST POP SWAP3 SWAP2 POP POP JUMP INVALID LOG2 PUSH5 0x6970667358 0x22 SLT KECCAK256 SWAP1 0x4F PUSH24 0x1DD39A5C5C7375E2C76E2A0728E9AB6517FD021D4D4E1BBC 0xB1 TSTORE EXP 0x1F ADDRESS PUSH5 0x736F6C6343 STOP ADDMOD BYTE STOP CALLER "},"methodIdentifiers":{"addBeneficiary(bytes32,uint256)":"a17e094c","claimInheritance(address,string,address)":"cb35174a","createWill(uint256)":"e2c5db56","ping()":"5c36b186","removeBeneficiary(bytes32)":"bb66660b","updateBeneficiary(bytes32,uint256)":"b7d3ff37"}}}}}